{
  "transactions": [
    {
      "hash": "0xd841892031c0014b52c571f3791daf226fb2bb82684d4398a0db3906ef1b62b7",
      "transactionType": "CREATE",
      "contractName": "VipScore",
      "contractAddress": "0x02dd9e4b05dd4a67a073ee9746192afe1fa30906",
      "function": null,
      "arguments": [
        "1"
      ],
      "transaction": {
        "from": "0x564323ae0d8473103f3763814c5121ca9e48004b",
        "gas": "0x113728",
        "value": "0x0",
        "input": "0x60803461008c576001600160401b0390601f610e8e38819003918201601f1916830191848311848410176100905780849260209460405283398101031261008c575190811680910361008c57335f908152600560205260408120805460ff1916600117905580546001600160401b0319168217905561007d906100a4565b604051610d6b90816101238239f35b5f80fd5b634e487b7160e01b5f52604160045260245ffd5b6001600160401b0390811690811561011057815f52600160205260405f2091825491821661010b576001600160881b031990911681179091556040519081527fa3b29f5280040d753fd51383140f1a15f5740432a66e6e0543e99119f3c4522e90602090a1565b505050565b6040516310310b1960e01b8152600490fdfe6080604090808252600480361015610015575f80fd5b5f3560e01c91826317abbd5014610627575081632848aeaf146105eb5781633482ec7f1461059f57816345a2b96b146104b65781635466d83d14610457578163977e940414610405578163990357e5146102345781639da21167146101e3578163ca480c301461017e578163d3f942c314610132578163dab73a86146100cd575063e1097249146100a4575f80fd5b346100c9575f3660031901126100c9576020906001600160401b035f54169051908152f35b5f80fd5b9050346100c95760603660031901126100c9576100e86106f6565b6100f0610738565b906100f961070c565b92335f52600560205260ff855f2054161561011b575061011993506109da565b005b6024908551906317f323f360e01b82523390820152fd5b9050346100c95760603660031901126100c95761014d6106f6565b610155610738565b9061015e61070c565b92335f52600560205260ff855f2054161561011b57506101199350610bcb565b9050346100c95760203660031901126100c957610199610722565b90335f52600560205260ff835f205416156101cc57506001600160a01b03165f908152600560205220805460ff19169055005b6024908351906317f323f360e01b82523390820152fd5b9050346100c95760203660031901126100c9576101fe610722565b90335f52600560205260ff835f205416156101cc57506001600160a01b03165f908152600560205220805460ff19166001179055005b82346100c95760609060606003193601126100c9576102516106f6565b90602435926001600160401b039384811681036100c9578461027161070c565b1692601f61027e856109af565b9782519882199283910116890190898210898311176103f2575082969396528488526102a9856109af565b602091015f5b8181106103c9575050865f9316925b878116868110156103bb576102db6102d689846107aa565b61077e565b5f86815260038552858120918b16808252918552859020546001600160a01b0316908b90821561035357928b94926103448261034b946001978c5f5260028b528b5f20855f528b52898c5f205460081c1661033461097c565b9586528b8601528b8501526109c6565b528c6109c6565b5001166102be565b5050505050929350959350505b845193818501928286528451809452828787019501965f925b8584106103865787870388f35b885180516001600160a01b03168852808601518216888701528201518116878301529784019795820195600190930192610379565b505092935095935050610360565b82906103d698959861097c565b5f81525f838201525f8682015282828d010152019693966102af565b604190634e487b7160e01b5f525260245ffd5b82346100c95760203660031901126100c9576060906001600160401b03908161042c6106f6565b165f52600160205260ff815f2054825193808216855281841c16602085015260801c16151590820152f35b82346100c957806003193601126100c9576104706106f6565b610478610738565b6001600160401b038092165f526002602052825f209060018060a01b03165f52602052815f20549082519160ff81161515835260081c166020820152f35b9050346100c95760603660031901126100c9576104d16106f6565b6001600160401b036024358181116100c9576104f0903690850161074e565b6044949194358381116100c95761050a903690840161074e565b929096335f52600560205260ff815f205416156105885783830361057b5750505f5b81811061053557005b610540818388610958565b35906001600160a01b03821682036100c95761055d81858a610958565b359185831683036100c9576001926105759188610bcb565b0161052c565b5163388283af60e11b8152fd5b6024925051906317f323f360e01b82523390820152fd5b9050346100c95760603660031901126100c9576105ba6106f6565b6105c2610738565b906105cb61070c565b92335f52600560205260ff855f2054161561011b575061011993506107de565b82346100c95760203660031901126100c9576020906001600160a01b03610610610722565b165f526005825260ff815f20541690519015158152f35b9150346100c95760203660031901126100c9576106426106f6565b91335f52600560205260ff845f205416156106e257506001600160401b039081831691825f526001602052845f205416156106cd576101196106c8847fcadfe6a64e10152f3376a443fde9c4663759d6f8e9afc95be75d74cbe5e25f9c60208689815f5260018352805f20600160801b60ff60801b1982541617905551908152a161077e565b610a98565b602491845191636271a68560e01b8352820152fd5b6024916317f323f360e01b82523390820152fd5b600435906001600160401b03821682036100c957565b604435906001600160401b03821682036100c957565b600435906001600160a01b03821682036100c957565b602435906001600160a01b03821682036100c957565b9181601f840112156100c9578235916001600160401b0383116100c9576020808501948460051b0101116100c957565b9060016001600160401b038093160191821161079657565b634e487b7160e01b5f52601160045260245ffd5b9190916001600160401b038080941691160191821161079657565b6001600160401b03918216908216039190821161079657565b6001600160a01b038216918215610952576001600160401b0380831694855f526020926001845260409483865f2054161561093a57875f526001855260ff865f205460801c166109225783866108e76108c361091d966108647faa223ecc7f67d3014d35d9d5e419dd09b7e4b2ae2d427d33b1995b38ecfefe8d9b9a9997600197610b1d565b8c5f528589526108b7845f2060028b528d865f20905f528b526108908388885f20988454901c166107c5565b67ffffffffffffffff60401b82549160401b169067ffffffffffffffff60401b1916179055565b84845460081c166107c5565b825468ffffffffffffffff00191660089190911b68ffffffffffffffff0016178255565b5460081c1693885f5252835f2054841c169251928392839060209093929360408301946001600160401b03809216845216910152565b0390a3565b8551635699f3ef60e01b815260048101899052602490fd5b8551636271a68560e01b815260048101899052602490fd5b50505050565b91908110156109685760051b0190565b634e487b7160e01b5f52603260045260245ffd5b60405190606082018281106001600160401b0382111761099b57604052565b634e487b7160e01b5f52604160045260245ffd5b6001600160401b03811161099b5760051b60200190565b80518210156109685760209160051b010190565b6001600160a01b038216918215610952576001600160401b0380831694855f526020926001845260409483865f2054161561093a57875f526001855260ff865f205460801c166109225783866108e76108c361091d96610a607faa223ecc7f67d3014d35d9d5e419dd09b7e4b2ae2d427d33b1995b38ecfefe8d9b9a9997600197610b1d565b8c5f52858952610a8c845f2060028b528d865f20905f528b526108908388885f20988454901c166107aa565b84845460081c166107aa565b6001600160401b03809116908115610b0b57815f52600160205260405f20918254918216610b06577fa3b29f5280040d753fd51383140f1a15f5740432a66e6e0543e99119f3c4522e928160209370ffffffffffffffffffffffffffffffffff1916179055604051908152a1565b505050565b6040516310310b1960e01b8152600490fd5b6001600160401b0380911690815f52602060028152604092835f209460018060a01b031694855f528252835f20805460ff811615610b5f575b50505050505050565b60ff191660011790555f81815260048352849020805484610b8181831661077e565b16906001600160401b0319161790555f5260038152825f209160048252835f2054165f52525f20906bffffffffffffffffffffffff60a01b8254161790555f808080808080610b56565b6001600160a01b03821691908215610952576001600160401b039182821694855f526020916001835260409385855f20541615610d1d57875f526001845260ff855f205460801c16610d055790610c2191610b1d565b855f5260018252825f209360028352835f20865f528352835f209181835460081c16600f0b828216600f0b0360016001607f1b039060016001607f1b0319928282138483121761079657855468ffffffffffffffff00191660089190911b68ffffffffffffffff0016178555895f526001865283875f2054881c16600f0b90600f0b0191821290821317610796578161091d936108e77faa223ecc7f67d3014d35d9d5e419dd09b7e4b2ae2d427d33b1995b38ecfefe8d98836001951667ffffffffffffffff60401b82549160401b169067ffffffffffffffff60401b1916179055565b8451635699f3ef60e01b815260048101899052602490fd5b8451636271a68560e01b815260048101899052602490fdfea26469706673582212203bfe2fb6d7787bcb359534e0a3e3556224f78bdd3719cfd0585b96e5fe227dca64736f6c634300081800330000000000000000000000000000000000000000000000000000000000000001",
        "nonce": "0x2a3",
        "chainId": "0x78bf8b733fcd8"
      },
      "additionalContracts": [],
      "isFixedGasLimit": false
    },
    {
      "hash": "0x33e8b4bf3b690b63b7e1bc66968e1d6f5cd4f5883875066ee8c41098c3156b9c",
      "transactionType": "CALL",
      "contractName": null,
      "contractAddress": "0x790080f8232a7b82321459e1baaf8100665d9485",
      "function": "setVipScore(address)",
      "arguments": [
        "0x02dd9E4b05Dd4a67A073EE9746192afE1FA30906"
      ],
      "transaction": {
        "from": "0x564323ae0d8473103f3763814c5121ca9e48004b",
        "to": "0x790080f8232a7b82321459e1baaf8100665d9485",
        "gas": "0xffbd",
        "value": "0x0",
        "input": "0x293d15ff00000000000000000000000002dd9e4b05dd4a67a073ee9746192afe1fa30906",
        "nonce": "0x2a4",
        "chainId": "0x78bf8b733fcd8"
      },
      "additionalContracts": [],
      "isFixedGasLimit": false
    },
    {
      "hash": "0x9e623e31b696475788224fcf075adf53d8cc5e98d0fd91bf2612d94d55a4860f",
      "transactionType": "CALL",
      "contractName": null,
      "contractAddress": "0x790080f8232a7b82321459e1baaf8100665d9485",
      "function": "setVipStage(uint64)",
      "arguments": [
        "1"
      ],
      "transaction": {
        "from": "0x564323ae0d8473103f3763814c5121ca9e48004b",
        "to": "0x790080f8232a7b82321459e1baaf8100665d9485",
        "gas": "0x1059d",
        "value": "0x0",
        "input": "0xda1c8baa0000000000000000000000000000000000000000000000000000000000000001",
        "nonce": "0x2a5",
        "chainId": "0x78bf8b733fcd8"
      },
      "additionalContracts": [],
      "isFixedGasLimit": false
    },
    {
      "hash": "0x8744ea36ba904f0933fa29a79ec3aef5e80eff3cae2047c507c90b2fa1a51ec2",
      "transactionType": "CALL",
      "contractName": null,
      "contractAddress": "0x790080f8232a7b82321459e1baaf8100665d9485",
      "function": "setVipHookEnabled(bool)",
      "arguments": [
        "true"
      ],
      "transaction": {
        "from": "0x564323ae0d8473103f3763814c5121ca9e48004b",
        "to": "0x790080f8232a7b82321459e1baaf8100665d9485",
        "gas": "0xb2c2",
        "value": "0x0",
        "input": "0xf4597ebc0000000000000000000000000000000000000000000000000000000000000001",
        "nonce": "0x2a6",
        "chainId": "0x78bf8b733fcd8"
      },
      "additionalContracts": [],
      "isFixedGasLimit": false
    },
    {
      "hash": "0x6d78d499a230e23c3d71ee4b34cd9698663cc967c5db11693074802aa8278df3",
      "transactionType": "CALL",
      "contractName": null,
      "contractAddress": "0x29238f71b552a5bcc772d830b867b67d37e0af5c",
      "function": "setVipScore(address)",
      "arguments": [
        "0x02dd9E4b05Dd4a67A073EE9746192afE1FA30906"
      ],
      "transaction": {
        "from": "0x564323ae0d8473103f3763814c5121ca9e48004b",
        "to": "0x29238f71b552a5bcc772d830b867b67d37e0af5c",
        "gas": "0x10e4d",
        "value": "0x0",
        "input": "0x293d15ff00000000000000000000000002dd9e4b05dd4a67a073ee9746192afe1fa30906",
        "nonce": "0x2a7",
        "chainId": "0x78bf8b733fcd8"
      },
      "additionalContracts": [],
      "isFixedGasLimit": false
    },
    {
      "hash": "0xb611451d95ede751e2479c3fba3978fbcf15379578b80bdc10e5bdc81bcdfb4c",
      "transactionType": "CALL",
      "contractName": null,
      "contractAddress": "0x29238f71b552a5bcc772d830b867b67d37e0af5c",
      "function": "setVipStage(uint64)",
      "arguments": [
        "1"
      ],
      "transaction": {
        "from": "0x564323ae0d8473103f3763814c5121ca9e48004b",
        "to": "0x29238f71b552a5bcc772d830b867b67d37e0af5c",
        "gas": "0x101f8",
        "value": "0x0",
        "input": "0xda1c8baa0000000000000000000000000000000000000000000000000000000000000001",
        "nonce": "0x2a8",
        "chainId": "0x78bf8b733fcd8"
      },
      "additionalContracts": [],
      "isFixedGasLimit": false
    },
    {
      "hash": "0x8f3f83145413893977ca08a6ddec600981da24b8d2df9a86fa5bb3151af1da8a",
      "transactionType": "CALL",
      "contractName": null,
      "contractAddress": "0x29238f71b552a5bcc772d830b867b67d37e0af5c",
      "function": "setVipHookEnabled(bool)",
      "arguments": [
        "true"
      ],
      "transaction": {
        "from": "0x564323ae0d8473103f3763814c5121ca9e48004b",
        "to": "0x29238f71b552a5bcc772d830b867b67d37e0af5c",
        "gas": "0xaed3",
        "value": "0x0",
        "input": "0xf4597ebc0000000000000000000000000000000000000000000000000000000000000001",
        "nonce": "0x2a9",
        "chainId": "0x78bf8b733fcd8"
      },
      "additionalContracts": [],
      "isFixedGasLimit": false
    },
    {
      "hash": "0x5845614b678784d494da4dd70674bb0cdd362f99eb5e15b6074c929a06af376d",
      "transactionType": "CALL",
      "contractName": "VipScore",
      "contractAddress": "0x02dd9e4b05dd4a67a073ee9746192afe1fa30906",
      "function": "addAllowList(address)",
      "arguments": [
        "0x790080F8232a7b82321459e1BaAf8100665d9485"
      ],
      "transaction": {
        "from": "0x564323ae0d8473103f3763814c5121ca9e48004b",
        "to": "0x02dd9e4b05dd4a67a073ee9746192afe1fa30906",
        "gas": "0x107c3",
        "value": "0x0",
        "input": "0x9da21167000000000000000000000000790080f8232a7b82321459e1baaf8100665d9485",
        "nonce": "0x2aa",
        "chainId": "0x78bf8b733fcd8"
      },
      "additionalContracts": [],
      "isFixedGasLimit": false
    },
    {
      "hash": "0x94dd4b0be26defe89bdb0f24cd25dded30f9cfbbbc88fb995fa89dff7a473ed6",
      "transactionType": "CALL",
      "contractName": "VipScore",
      "contractAddress": "0x02dd9e4b05dd4a67a073ee9746192afe1fa30906",
      "function": "addAllowList(address)",
      "arguments": [
        "0x29238F71b552a5bcC772d830B867B67D37E0af5C"
      ],
      "transaction": {
        "from": "0x564323ae0d8473103f3763814c5121ca9e48004b",
        "to": "0x02dd9e4b05dd4a67a073ee9746192afe1fa30906",
        "gas": "0x107e6",
        "value": "0x0",
        "input": "0x9da2116700000000000000000000000029238f71b552a5bcc772d830b867b67d37e0af5c",
        "nonce": "0x2ab",
        "chainId": "0x78bf8b733fcd8"
      },
      "additionalContracts": [],
      "isFixedGasLimit": false
    }
  ],
  "receipts": [
    {
      "status": "0x1",
      "cumulativeGasUsed": "0x4d5cc",
      "logs": [
        {
          "address": "0x2ee7007df876084d4c74685e90bb7f4cd7c86e22",
          "topics": [
            "0xddf252ad1be2c89b69c2b068fc378daa952ba7f163c4a11628f55a4df523b3ef",
            "0x000000000000000000000000564323ae0d8473103f3763814c5121ca9e48004b",
            "0x000000000000000000000000f1829676db577682e944fc3493d451b67ff3e29f"
          ],
          "data": "0x00000000000000000000000000000000000000000000000000000027672e1d81",
          "blockHash": "0x897c8ec3ea5f7c4b04183e400f51941957adc080f3c752a58734b4630c055889",
          "blockNumber": "0xfd2ab4",
          "transactionHash": "0xd841892031c0014b52c571f3791daf226fb2bb82684d4398a0db3906ef1b62b7",
          "transactionIndex": "0x1",
          "logIndex": "0x0",
          "removed": false
        },
        {
          "address": "0x02dd9e4b05dd4a67a073ee9746192afe1fa30906",
          "topics": [
            "0xa3b29f5280040d753fd51383140f1a15f5740432a66e6e0543e99119f3c4522e"
          ],
          "data": "0x0000000000000000000000000000000000000000000000000000000000000001",
          "blockHash": "0x897c8ec3ea5f7c4b04183e400f51941957adc080f3c752a58734b4630c055889",
          "blockNumber": "0xfd2ab4",
          "transactionHash": "0xd841892031c0014b52c571f3791daf226fb2bb82684d4398a0db3906ef1b62b7",
          "transactionIndex": "0x1",
          "logIndex": "0x1",
          "removed": false
        },
        {
          "address": "0x2ee7007df876084d4c74685e90bb7f4cd7c86e22",
          "topics": [
            "0xddf252ad1be2c89b69c2b068fc378daa952ba7f163c4a11628f55a4df523b3ef",
            "0x000000000000000000000000f1829676db577682e944fc3493d451b67ff3e29f",
            "0x000000000000000000000000564323ae0d8473103f3763814c5121ca9e48004b"
          ],
          "data": "0x0000000000000000000000000000000000000000000000000000000e2b0b4120",
          "blockHash": "0x897c8ec3ea5f7c4b04183e400f51941957adc080f3c752a58734b4630c055889",
          "blockNumber": "0xfd2ab4",
          "transactionHash": "0xd841892031c0014b52c571f3791daf226fb2bb82684d4398a0db3906ef1b62b7",
          "transactionIndex": "0x1",
          "logIndex": "0x2",
          "removed": false
        }
      ],
      "logsBloom": "0x00000000000000000000000000000000000000000000004000000000000000000000000000000000000000000001000000000000020000000000000000000000000000000000000000000008000000000000000000000000000000000000000000000000000000000400000000000000000000000000000000002010000000000000000000000002000000000000000000000000000000000000000000000000000000001000000000000000000000000000000000008000000000000021000002000002000000000000000000000000000000000000200000000000000000000000000000000000000000000000000000000100800000000000000000000008",
      "type": "0x0",
      "transactionHash": "0xd841892031c0014b52c571f3791daf226fb2bb82684d4398a0db3906ef1b62b7",
      "transactionIndex": "0x1",
      "blockHash": "0x897c8ec3ea5f7c4b04183e400f51941957adc080f3c752a58734b4630c055889",
      "blockNumber": "0xfd2ab4",
      "gasUsed": "0x4d5cc",
      "effectiveGasPrice": "0x249f0",
      "from": "0x564323ae0d8473103f3763814c5121ca9e48004b",
      "to": null,
      "contractAddress": "0x02dd9e4b05dd4a67a073ee9746192afe1fa30906"
    }
  ],
  "libraries": [],
  "pending": [
    "0x8744ea36ba904f0933fa29a79ec3aef5e80eff3cae2047c507c90b2fa1a51ec2",
    "0x8f3f83145413893977ca08a6ddec600981da24b8d2df9a86fa5bb3151af1da8a"
  ],
  "returns": {},
  "timestamp": 1776429002,
  "chain": 2124225178762456,
  "commit": null
}